:1000000060C000007BC0000079C0000077C0000025
:1000100075C0000073C0000071C000006FC0000018
:100020006DC000006BC0000069C0000067C0000028
:1000300065C00000D9C0000061C000005FC00000C2
:100040005DC000005BC0000059C0000057C0000048
:1000500055C0000053C0000051C000004FC0000058
:100060004DC000004BC0000049C0000047C0000068
:1000700045C0000043C0000041C000003FC0000078
:100080003DC000003BC0000039C00000ED01F1019F
:10009000F801FF017502060212021E022A02360250
:1000A00042024E025A026602820288028E029402C4
:1000B0009C02A002A402A802AC02B002B402B802E0
:1000C000BC0211241FBECFEFD0E4DEBFCDBF11E0D4
:1000D000A0E0B1E0E0E6F8E000E00BBF02C007906E
:1000E0000D92A430B107D9F721E0A4E0B1E001C03E
:1000F0001D92AD37B207E1F76AD3B0C381CF81302B
:1001000081F0E1ECF0E0808188618083E2ECF0E056
:100110008081866080838CE08093C4001092C5004B
:100120000895E9ECF0E0808188618083EAECF0E0FA
:100130008081866080838CE08093CC001092CD001B
:100140000895813029F48091C800882374F00895BF
:100150008091C00088238CF4A6ECB0E0E0ECF0E0E5
:100160008C9180818823E4F30895AEECB0E0E8EC54
:10017000F0E08C9180818823E4F30895613041F0B0
:10018000E0ECF0E0908195FFFDCF8093C6000895EC
:10019000E8ECF0E0908195FFFDCF8093CE000895CC
:1001A0008BE0809381008DE790E0909389008093AD
:1001B000880082E080936F00109285001092840086
:1001C0008091000190910101A0910201B091030181
:1001D0008093050190930601A0930701B093080155
:1001E0008FB780688FBF08951F920F920FB60F923E
:1001F00011248F939F93AF93BF93809105019091AA
:100200000601A0910701B09108010197A109B10968
:100210008093050190930601A0930701B093080114
:10022000892B8A2B8B2B99F481E080930901809193
:10023000000190910101A0910201B091030180930E
:10024000050190930601A0930701B0930801BF91A7
:10025000AF919F918F910F900FBE0F901F901895A7
:100260006093000170930101809302019093030158
:100270006093050170930601809307019093080134
:100280000895EAE7F0E08081806E808308958830E9
:1002900060F0ECE7F0E0808180838FE00000815027
:1002A000E9F78FE080930401089580937C00F5CFF7
:1002B000DF92EF92FF920F931F93CF93DF93909172
:1002C0000D01911103C080E488B96EC0913019F41A
:1002D00080E288B969C0923019F480E188B964C0BD
:1002E000933009F061C0D62EC82F80E788B987E027
:1002F000CEDFEC2EF12C08E710E0F801808191812F
:10030000E701CC0FDD1FCE0DDF1DCC0FDD1FC55962
:10031000DE4F9D838C8386E0BADFF8018081918176
:100320009B838A8385E0B3DFF80180819181998383
:10033000888384E0ACDF6D2D70E0F80180819181CD
:100340009B01220F331F660F771F660F771F660F03
:10035000771F620F731F2EE12E9DE0012F9DD00DA0
:1003600011246C0F7D1FEB01C05FDE4F99878887DA
:1003700083E08DDFF801808191819F838E8382E00D
:1003800086DFF801808191819D838C8381E07FDF0E
:10039000F801808191819B838A8380E078DFF80176
:1003A000808191819983888380910D018F5F8093F3
:1003B0000D01DF91CF911F910F91FF90EF90DF9092
:1003C0000895E0910F018E2F90E08E30910508F096
:1003D00089C0FC01EA5BFF4F38C281E080930F01C6
:1003E00091C085E080930F0118B810920D017DC077
:1003F00088E080930F0118B810920D0176C08BE051
:1004000080930F0118B810920D016FC080910D01FB
:10041000853008F491C086E080930F0118B81092DF
:100420000D0163C080910D01853008F489C087E01B
:1004300080930F0118B810920D0157C080910D01E3
:10044000853008F481C082E080930F0118B81092C3
:100450000D014BC080910D01853008F479C089E011
:1004600080930F0118B810920D013FC080910D01CB
:10047000853008F471C08AE080930F0118B810929B
:100480000D0133C080910D01853008F469C083E00F
:1004900080930F0118B810920D0127C080910D01B3
:1004A000853008F461C08CE080930F0118B8109279
:1004B0000D011BC080910D01853008F459C08DE0FD
:1004C00080930F0118B810920D010FC080910D019B
:1004D000853008F451C084E080930F0118B8109261
:1004E0000D0103C010920F010895E0910F018E2FAE
:1004F00090E0FC013197ED30F10508F040C0EC5A76
:10050000FF4FA3C110920D0180E480930C01089568
:1005100010920D0180E880930C01089510920D0156
:1005200080EC80930C01089510920D0181E080937E
:100530000B0110920C01089560E080E0B9CE08959F
:1005400061E080E0B5CE089562E080E0B1CE08952C
:1005500060E081E0ADCE089561E081E0A9CE08952C
:1005600062E081E0A5CE089560E082E0A1CE08952A
:1005700061E082E09DCE089562E082E099CE089528
:10058000CF92DF92EF92FF920F931F93CF93DF935F
:1005900080916A01882319F0813091F104C081E0D3
:1005A00080936A012DC010926A01B1C0621773076F
:1005B00058F080E488B981E080930A0180910C01B1
:1005C0008F7D80930C01A3C02417350770F064174A
:1005D000750758F080E188B982E080930A01809124
:1005E0000C01806280930C0192C080E188B98091F7
:1005F0000C01806280930C0183E080930A0187C024
:1006000087E045DE0F2EF8E7EF2EF12CF02DF701F5
:100610000081118186E03BDEF701C081D18185E058
:1006200036DEF70180819181EBE6F1E024813581AE
:10063000D801A21BB30B22813381BE01621B730B55
:1006400020813181AC01421B530BAA9F7001AB9FEB
:10065000F00CF00C1124669F9001679F300D300D57
:1006600011242E0D3F1D449FB001459F700D700D4C
:100670001124260F371F428553857801E41AF50AA5
:1006800040855185DE01A41BB50B46815781BC0115
:10069000641B750BEE9C6001EF9CD00CD00C1124F8
:1006A000AA9FA001AB9F500D500D11244C0D5D1D54
:1006B000669FD001679FB00DB00D11244A0F5B1FDC
:1006C00060897189061B170B66857785C61BD70B5A
:1006D00064857585861B970B009FF001019FF00DC7
:1006E000F00D1124CC9FB001CD9F700D700D112421
:1006F0006E0F7F1F889FF001899FF00DF00D112470
:100700006E0F7F1F4217530708F050CF60CF80E075
:1007100090E0DF91CF911F910F91FF90EF90DF90CC
:10072000CF90089580910E01882321F0813009F443
:1007300048C004C081E080930E0143C010920E01B6
:1007400043C080910C01806180930C0105C08091B1
:100750000C018F7E80930C01199906C080910C01C9
:10076000886080930C0105C080910C01877F809385
:100770000C011A9906C080910C01846080930C01D1
:1007800005C080910C018B7F80930C011B9906C0E2
:1007900080910C01826080930C0105C080910C0156
:1007A0008D7F80930C01009906C080910C018160BF
:1007B00080930C0109C080910C018E7F80930C0105
:1007C00003C0189BBECFC3CF80E090E0089511B85E
:1007D000CFEFC0B914B8C3B9C7B918B8CAB91BB8F4
:1007E00080E08DDC61E070E080E090E039DDD8DC15
:1007F000C0930F01C0936A01C0930E0142DD80E0F7
:1008000046DDC0ECD0E080910B01811107C0D9DD3D
:1008100068EE73E080E090E023DD07C064E670E0FE
:1008200080E090E01DDDACDE7DDF888185FF04C0C7
:1008300060E080910C01A2DC80E083DC8091090102
:100840008823E1F310920901DECFEE0FFF1F002491
:10085000001C0BBE0790F691E02D0994F894FFCF91
:040860000100000093
:00000001FF
